{
  "address": "0xCb463Ed9F5052a4Ad4F5f81509a3B599f87a3C81",
  "abi": [
    {
      "anonymous": false,
      "inputs": [
        {
          "indexed": true,
          "internalType": "address",
          "name": "addr",
          "type": "address"
        }
      ],
      "name": "Deployed",
      "type": "event"
    },
    {
      "inputs": [
        {
          "internalType": "bytes",
          "name": "bytecode",
          "type": "bytes"
        },
        {
          "internalType": "bytes32",
          "name": "salt",
          "type": "bytes32"
        }
      ],
      "name": "computeAddress",
      "outputs": [
        {
          "internalType": "address",
          "name": "",
          "type": "address"
        }
      ],
      "stateMutability": "view",
      "type": "function"
    },
    {
      "inputs": [
        {
          "internalType": "address",
          "name": "",
          "type": "address"
        }
      ],
      "name": "counter",
      "outputs": [
        {
          "internalType": "uint256",
          "name": "",
          "type": "uint256"
        }
      ],
      "stateMutability": "view",
      "type": "function"
    },
    {
      "inputs": [
        {
          "internalType": "bytes",
          "name": "bytecode",
          "type": "bytes"
        },
        {
          "internalType": "bytes32",
          "name": "salt",
          "type": "bytes32"
        }
      ],
      "name": "deploy",
      "outputs": [
        {
          "internalType": "address",
          "name": "addr",
          "type": "address"
        }
      ],
      "stateMutability": "nonpayable",
      "type": "function"
    }
  ],
  "transactionHash": "0xa0bfcaeaa1845b3f66e25ac5dfb4dd0ddd3219c6c22c16f40cf868ef14df87af",
  "args": [],
  "numDeployments": 1,
  "solcInputHash": "b1824ac5b12fb8797c7fd71ed4122174",
  "bytecode": "0x608060405234801561001057600080fd5b5061075f806100206000396000f3fe608060405234801561001057600080fd5b50600436106100415760003560e01c80633e4b9f7a146100465780634af63f0214610076578063c12327b8146100a6575b600080fd5b610060600480360381019061005b91906103d1565b6100d6565b60405161006d919061046e565b60405180910390f35b610090600480360381019061008b91906103d1565b610120565b60405161009d919061046e565b60405180910390f35b6100c060048036038101906100bb91906104b5565b610229565b6040516100cd91906104fb565b60405180910390f35b60008060ff60f81b308486805190602001206040516020016100fb94939291906105cc565b6040516020818303038152906040528051906020012090508060001c91505092915050565b600080835111610165576040517f08c379a000000000000000000000000000000000000000000000000000000000815260040161015c90610677565b60405180910390fd5b818351602085016000f59050600073ffffffffffffffffffffffffffffffffffffffff168173ffffffffffffffffffffffffffffffffffffffff16036101e0576040517f08c379a00000000000000000000000000000000000000000000000000000000081526004016101d790610709565b60405180910390fd5b8073ffffffffffffffffffffffffffffffffffffffff167ff40fcec21964ffb566044d083b4073f29f7f7929110ea19e1b3ebe375d89055e60405160405180910390a292915050565b60006020528060005260406000206000915090505481565b6000604051905090565b600080fd5b600080fd5b600080fd5b600080fd5b6000601f19601f8301169050919050565b7f4e487b7100000000000000000000000000000000000000000000000000000000600052604160045260246000fd5b6102a88261025f565b810181811067ffffffffffffffff821117156102c7576102c6610270565b5b80604052505050565b60006102da610241565b90506102e6828261029f565b919050565b600067ffffffffffffffff82111561030657610305610270565b5b61030f8261025f565b9050602081019050919050565b82818337600083830152505050565b600061033e610339846102eb565b6102d0565b90508281526020810184848401111561035a5761035961025a565b5b61036584828561031c565b509392505050565b600082601f83011261038257610381610255565b5b813561039284826020860161032b565b91505092915050565b6000819050919050565b6103ae8161039b565b81146103b957600080fd5b50565b6000813590506103cb816103a5565b92915050565b600080604083850312156103e8576103e761024b565b5b600083013567ffffffffffffffff81111561040657610405610250565b5b6104128582860161036d565b9250506020610423858286016103bc565b9150509250929050565b600073ffffffffffffffffffffffffffffffffffffffff82169050919050565b60006104588261042d565b9050919050565b6104688161044d565b82525050565b6000602082019050610483600083018461045f565b92915050565b6104928161044d565b811461049d57600080fd5b50565b6000813590506104af81610489565b92915050565b6000602082840312156104cb576104ca61024b565b5b60006104d9848285016104a0565b91505092915050565b6000819050919050565b6104f5816104e2565b82525050565b600060208201905061051060008301846104ec565b92915050565b60007fff0000000000000000000000000000000000000000000000000000000000000082169050919050565b6000819050919050565b61055d61055882610516565b610542565b82525050565b60008160601b9050919050565b600061057b82610563565b9050919050565b600061058d82610570565b9050919050565b6105a56105a08261044d565b610582565b82525050565b6000819050919050565b6105c66105c18261039b565b6105ab565b82525050565b60006105d8828761054c565b6001820191506105e88286610594565b6014820191506105f882856105b5565b60208201915061060882846105b5565b60208201915081905095945050505050565b600082825260208201905092915050565b7f466163746f72792e6465706c6f793a20656d7074792062797465636f64650000600082015250565b6000610661601e8361061a565b915061066c8261062b565b602082019050919050565b6000602082019050818103600083015261069081610654565b9050919050565b7f466163746f72792e6465706c6f793a206661696c6564206465706c6f796d656e60008201527f7400000000000000000000000000000000000000000000000000000000000000602082015250565b60006106f360218361061a565b91506106fe82610697565b604082019050919050565b60006020820190508181036000830152610722816106e6565b905091905056fea2646970667358221220943eed60b300c93754e55deae06764dfb036fb158b48227f968ad41824f0022a64736f6c63430008130033",
  "devdoc": {
    "kind": "dev",
    "methods": {},
    "version": 1
  },
  "userdoc": {
    "kind": "user",
    "methods": {},
    "version": 1
  },
  "storageLayout": {
    "storage": [
      {
        "astId": 5,
        "contract": "contracts/Factory.sol:Factory",
        "label": "counter",
        "offset": 0,
        "slot": "0",
        "type": "t_mapping(t_address,t_uint256)"
      }
    ],
    "types": {
      "t_address": {
        "encoding": "inplace",
        "label": "address",
        "numberOfBytes": "20"
      },
      "t_mapping(t_address,t_uint256)": {
        "encoding": "mapping",
        "key": "t_address",
        "label": "mapping(address => uint256)",
        "numberOfBytes": "32",
        "value": "t_uint256"
      },
      "t_uint256": {
        "encoding": "inplace",
        "label": "uint256",
        "numberOfBytes": "32"
      }
    }
  }
}